:020000040800F2
:1000000088060020650100088B0100088D010008AA
:1000100000000000000000000000000000000000E0
:100020000000000000000000000000008F01000838
:10003000000000000000000091010008930100088A
:100040009501000895010008950100089501000838
:1000500095010008B103000895010008950100080A
:100060009501000895010008950100089501000818
:100070009501000895010008950100089501000808
:100080009501000800000000000000009501000834
:100090000000000095010008850A0008950100088D
:1000A0000000000095010008950100089501000876
:1000B0009501000800000000950100089501000866
:1000C00000F002F800F03EF80CA030C80838241800
:1000D0002D18A246671EAB4654465D46AC4201D180
:1000E00000F030F87E460F3E0FCCB6460126334274
:1000F00000D0FB1AA246AB4633431847481600000F
:1001000068160000103A02D378C878C1FAD85207AE
:1001100001D330C830C101D504680C6070470000BD
:100120000023002400250026103A01D378C1FBD813
:10013000520700D330C100D50B6070471FB51FBDFB
:1001400010B510BD00F0F8F81146FFF7F7FF00F00A
:1001500081FE00F010F903B4FFF7F2FF03BC00F0DA
:1001600017F900000F4880F308880F480168090E4E
:100170000E4A914205D10E480E4901600E480F49C2
:1001800001600F4880470F480047FEE7FEE7FEE7A3
:10019000FEE7FEE7FEE700000B480C490C4A0D4B5A
:1001A0007047000088060020040000001F000000C7
:1001B0001810024001000000000001400000000093
:1001C000110A0008C10000088800002088060020ED
:1001D0008802002088020020002203098B422CD3D1
:1001E000030A8B4211D300239C464EE003460B4387
:1001F0003CD4002243088B4231D303098B421CD3E9
:10020000030A8B4201D394463FE0C3098B4201D3DA
:10021000CB01C01A524183098B4201D38B01C01A12
:10022000524143098B4201D34B01C01A5241030989
:100230008B4201D30B01C01A5241C3088B4201D338
:10024000CB00C01A524183088B4201D38B00C01AE5
:10025000524143088B4201D34B00C01A5241411A0C
:1002600000D201465241104670475DE0CA0F00D0EF
:100270004942031000D34042534000229C460309E8
:100280008B422DD3030A8B4212D3FC22890112BA6E
:10029000030A8B420CD3890192118B4208D3890146
:1002A00092118B4204D389013AD0921100E089095E
:1002B000C3098B4201D3CB01C01A524183098B423F
:1002C00001D38B01C01A524143098B4201D34B0128
:1002D000C01A524103098B4201D30B01C01A52418B
:1002E000C3088B4201D3CB00C01A524183088B4212
:1002F00001D38B00C01A5241D9D243088B4201D39B
:100300004B00C01A5241411A00D201466346524185
:100310005B10104601D34042002B00D54942704784
:1003200063465B1000D3404201B50020C046C04682
:1003300002BD704770477047754600F025F8AE461D
:10034000050069465346C008C000854618B020B570
:10035000FFF722FF60BC00274908B6460026C0C54B
:10036000C0C5C0C5C0C5C0C5C0C5C0C5C0C5403D6D
:1003700049008D46704710B50446C046C046204629
:10038000FFF7E9FE10BD000000487047280000207C
:1003900001491820ABBEFEE726000200704710B5E9
:1003A0000446802000F05CF8204600F059F810BDAB
:1003B00007484069C007C00F002808D004484069BA
:1003C0000121084302494861012002490870704731
:1003D000000401400300002000BF0D488069012196
:1003E000C90308400028F8D1094840680949084075
:1003F000074948600846406807490843044948607F
:1004000000BF03488069402108400028F9D17047A7
:10041000005400400078FFFF7820FF0010B500BFB7
:10042000012000F079FB012148400C49896908400E
:100430000028F5D10948406801218903084307498C
:10044000486000BF05488069202108400028F9D095
:100450000248C06908430149C86110BD005400400A
:1004600010B5044600BF012000F056FB074989691A
:1004700008400028F7D00548846200BF034880691F
:10048000402108400028F9D110BD00000054004070
:10049000F8B507460D46FFF79FFF4020FFF7E0FF46
:1004A00000241DE0384620388100401800190F490B
:1004B0000E5C002D04D0F143C8B2FFF7D1FF02E07B
:1004C0003046FFF7CDFF042C08D1002D03D0FF20CC
:1004D000FFF7C6FF02E00020FFF7C2FF601CC4B2B6
:1004E000052CDFDBFFF79AFFF8BD0000DA120008E9
:1004F00070B5002417E0FFF76FFF2020FFF74FFFD4
:100500000020FFF74CFF4020FFF7AAFF002504E082
:100510000020FFF7A5FF681CC5B2802DF8DBFFF7B0
:100520007DFF601CC4B2082CE5DB70BD70B50446CD
:100530000D46FFF751FF0F2C06DD2111102211434C
:100540000846FFF72CFF02E01020FFF728FF2007E6
:10055000000FFFF724FFB02129430846FFF71FFFD4
:10056000FFF75CFF70BD000010B5FFF735FFAE2050
:10057000FFF715FF002405E00549085DFFF70FFFB1
:10058000601CC4B2122CF7D9FFF748FF10BD000061
:10059000C8120008FEB504460E460125002700BF1C
:1005A000022C10DB2046E10F091849104900611A9E
:1005B000CFB238463030694648552046E10F091819
:1005C000C9050C0E04E02046303069464855002429
:1005D000681CC5B2092DE3DB681EC5B200BF6946C1
:1005E000485D3146FFF754FF681EC5B2002DF6D1B5
:1005F000FEBDF3B585B0064601240027002001901A
:10060000002E01DB354602E075420120019000BF5B
:100610000A2D0ED30A212846FFF7DEFD0F46384685
:10062000303002A908550A212846FFF7D5FD0546B6
:1006300004E02846303002A908550025601CC4B2E9
:10064000002DE5D10198002803D02D2002A90855DE
:1006500001E0601EC4B200BF02A9085D0699FFF761
:1006600017FF601EC4B2002CF6D107B0F0BDF3B581
:1006700085B006460124002700200190002E01DBF2
:10068000354602E075420120019000BF102D0ED3C7
:100690002F073F0F0A2F04DA3846303002A90855D9
:1006A00003E03846373002A908552D090BE00A2D22
:1006B00004D22846303002A9085503E028463730D6
:1006C00002A908550025601CC4B2002DDED1019896
:1006D000002803D02D2002A9085501E0601EC4B2F5
:1006E00000BF02A9085D0699FFF7D2FE601EC4B2E2
:1006F000002CF6D107B0F0BD70B504460D4604E0FD
:1007000020782946FFF7C4FE641C20780028F7D122
:1007100070BD10B50446072000F092F82073092040
:1007200000F08EF840B26073207B40210840002822
:100730000DD006222146612000F0CAF80021E220F7
:1007400000F036F8FF21272000F032F803E0FF2107
:10075000272000F02DF810BD0921C906896A102252
:1007600011430922D206916200BF10498968022212
:1007700011400029F9D00D49087300BF0B49896861
:10078000802211400029F9D100BF08498968C907B2
:10079000C90F0029F9D00549087B0921C9068969D3
:1007A000102211430922D2069161704700300140A6
:1007B00010B502460923DB069B6A10242343092453
:1007C000E406A36200BF1D4B9B6802242340002B5C
:1007D000F9D01A4B1A7300BF184B9B688024234032
:1007E000002BF9D100BF154B9B68DB07DB0F002BFB
:1007F000F9D0124B187B00BF104B9B68022423409A
:10080000002BF9D00D4B197300BF0C4B9B68802453
:100810002340002BF9D100BF084B9B68DB07DB0F9F
:10082000002BF9D0054B187B0923DB069B691024AC
:1008300023430924E406A36110BD000000300140F9
:1008400001460922D206926A10231A430923DB06C5
:100850009A6200BF1D4A926802231A40002AF9D00A
:100860001A4A117300BF194A926880231A40002A5D
:10087000F9D100BF154A9268D207D20F002AF9D0E9
:10088000124A117B00BF114A926802231A40002AC3
:10089000F9D000220D4B1A7300BF0C4A92688023D6
:1008A0001A40002AF9D100BF084A9268D207D20F35
:1008B000002AF9D0054A107B0922D206926910233A
:1008C0001A430923DB069A6170470000003001409B
:1008D00070B503460C460925ED06AD6A1026354372
:1008E0000926F606B56200BF204DAD6802263540E8
:1008F000002DF9D01D4D2B7300BF1C4DAD68802617
:100900003540002DF9D100BF184DAD68ED07ED0F52
:10091000002DF9D0154D287B00211CE000BF134DA0
:10092000AD6802263540002DF9D000250F4E3573F5
:1009300000BF0E4DAD6880263540002DF9D100BFB7
:100940000A4DAD68ED07ED0F002DF9D0074D2D7B59
:1009500065544D1CE9B29142E0DB0925ED06AD6915
:10096000102635430926F606B56170BD00300140FA
:1009700070B503460C460925ED06AD6A10263543D1
:100980000926F606B56200BF204DAD680226354047
:10099000002DF9D01D4D2B7300BF1C4DAD68802676
:1009A0003540002DF9D100BF184DAD68ED07ED0FB2
:1009B000002DF9D0154D287B00211BE000BF134D01
:1009C000AD6802263540002DF9D0655C0F4E3573B9
:1009D00000BF0E4DAD6880263540002DF9D100BF17
:1009E0000A4DAD68ED07ED0F002DF9D0074D2D7BB9
:1009F0004D1CE9B29142E1DB0925ED06AD691026F7
:100A000035430926F606B56170BD0000003001408F
:100A100019480068012108431749086008464068E2
:100A200016490840144948600846006814490840BF
:100A300011490860084600680121890488430E496D
:100A40000860084640683F21090488430A49486015
:100A50000846C06A00090001C8620846006BFF2111
:100A6000D4318843044908630846406B400840007D
:100A70004863002088607047001002400CB8FF08EF
:100A8000FFFFF6FE00B507480069C007C00F002849
:100A900007D000F009F80348006940084000014908
:100AA000086100BD0048014016480088002804D0B5
:100AB00014480088401E1349088013480088002805
:100AC00009D1FF20F5301049088010484069012104
:100AD00048400E4948610E480088002806D17D2014
:100AE000C0000B49088001200A49087006480088A8
:100AF000401E0549088006480088401E04490880B9
:100B00007047000006000020080000200004004894
:100B10000A000020040000200146104A00BF1048CF
:100B2000806931231B011840002803D11046521E52
:100B300000280BD16320C000094BD861184680699A
:100B400001231843064B98610020704704488069D0
:100B500008400028E3D00120F7E70000102700003C
:100B600000540040002809DB00BF00BFC206D20EBF
:100B700001219140024A116000BF00BF7047000090
:100B800000E100E010B5002819DB1A4A03231B021C
:100B9000D21883089B00D2588307DC0EFF23A340A2
:100BA0009A438B071B0E8407E40EA3401A43114B94
:100BB000032424021B198408A4001A5118E00E4AC9
:100BC00003071B0F083B9B089B00D2588307DC0ED2
:100BD000FF23A3409A438B071B0E8407E40EA34018
:100BE0001A43054B0407240F083CA408A4001A511B
:100BF00010BD000000E100E01CED00E003490880AA
:100C000000BF024909880029FBD170470600002077
:100C100000B50920C006806A082108430921C906D9
:100C2000886208468069102108430921C906886145
:100C30000720FFF705FE00BD10B57D488069012142
:100C4000890408437A4988617A487B49886201208F
:100C5000C862084600689121084377490860084641
:100C6000C068012108437449C8601620FFF77AFF65
:100C700005211620FFF786FF6D4840690121890490
:100C800008436B4948616D480068012108436B497E
:100C9000086067484069C9010843654948610920FF
:100CA000C0060068302188430921C906086008464B
:100CB000C068102108430921C906C8605C48406922
:100CC0000121890408435A4948615C4800680521AC
:100CD0004903084359490860084680680F21090301
:100CE00008435649886008464068C0210843534974
:100CF00048600846006A1121090608434F49086206
:100D00000920C0060068042108430921C9060860BB
:100D10004748C0690121490508434549C861484819
:100D200000694749086108460069092108434449A8
:100D30000861084600690321090208434049086127
:100D4000084600690121090408433D490861084635
:100D500000690321090508433949086108464068CC
:100D60000321C902884336494860084600680121CA
:100D70000843334908602E4840690121490408436B
:100D80002B4948610920C00680682E490843092183
:100D9000C9068860084600681521C9020843092170
:100DA000C90608600846006A086208460068FF2114
:100DB000413108430921C90608601D4880690121A5
:100DC000090308431A4988611F480068C121890046
:100DD00008431D49086008464068891408431A49B9
:100DE0004860084600684021084317490860092008
:100DF000C0068069102108430921C90688610C4892
:100E00008069012108430A4988611048C0680F4978
:100E1000C8600F48C068012108430D49C86002211D
:100E20000520FFF7AFFE0520FFF79CFE62B610BD60
:100E3000001002403F1F000000480140000400482D
:100E400000540040F0FF000000300140000001406D
:100E500000040140FFF7F0FE6420FFF7CFFEFFF72C
:100E600083FBFFF745FB00210A20FFF75FFB012111
:100E70004EA0FFF741FC01210846FFF757FB002178
:100E80004EA0FFF739FCFFF7C3FE04460021FFF731
:100E9000EEFB0920C006806A082108430921C90623
:100EA000886200F075F900F0E5F800F086F900F0CE
:100EB000A7F83F212020FFF77BFC4248FFF729FCE1
:100EC0000920C0068069082108430921C9068861F4
:100ED0003D480068012108433B49086064E03B4805
:100EE0000078002817D00020384908700721012019
:100EF000FFF71CFB002136A0FFF7FEFB3649087800
:100F00000978491C344B19700021FFF772FB00214E
:100F100032A0FFF7F1FB32480078002844D00720C8
:100F2000FFF78EFC4021084000283DD02548FFF700
:100F3000F0FB00202A49087003210120FFF7F6FA90
:100F4000002128A0FFF7D8FB1E490D2008560021DC
:100F5000FFF74FFB002125A0FFF7CEFB0421012066
:100F6000FFF7E4FA002124A0FFF7C6FB1549087B30
:100F70000021FFF70FFB002118A0FFF7BDFB0521A3
:100F80000120FFF7D3FA00210E48FFF7B5FB05213A
:100F90001F20FFF7CBFA0B4948790021FFF729FB07
:100FA00000210EA0FFF7A8FB99E70000205445534D
:100FB000542053453852303120000000537461747E
:100FC00075733D001800002000040140040000205B
:100FD0004C4344203D20000002000020202020003F
:100FE000030000205278203D200000002064426D64
:100FF0002E2020200000000053544154203D2000AA
:1010000000B501212120FFF7D3FB01212220FFF7AA
:10101000CFFB02212320FFF7CBFB0A212420FFF77F
:10102000C7FB28212520FFF7C3FB4F212620FFF710
:10103000BFFB042206493020FFF79AFC0422044932
:101040002A20FFF795FC06213120FFF7B1FB00BDF8
:101050001200002070B5044625460720FFF77CFBF0
:10106000064680203040A84203D053215020FFF78D
:101070009FFB70BD1CB58020FFF7ECFF434903C9FF
:1010800001910090042269462120FFF771FC202184
:101090006846017008214170502181704021C17063
:1010A00050210171052269462320FFF761FC0021D0
:1010B0006846017041701E218170032269462A2012
:1010C000FFF756FC292168460170012269462C2051
:1010D000FFF74EFC00216846017001226946372067
:1010E000FFF746FC7F2168460170012269463820DF
:1010F000FFF73EFC022168460170C1214170EB21DF
:1011000081701C21C170042269463D20FFF730FC2C
:10111000972168460170642141700021817081210E
:10112000C170042269463E20FFF722FC0020FFF731
:1011300091FF0920C0068069082108430921C906DA
:1011400088611E20FFF75AFD0920C006806A082129
:1011500008430921C90688623220FFF74FFD0920A4
:10116000C0068069082108430921C90688611E203C
:10117000FFF744FD0920C006806A082108430921C1
:10118000C90688623220FFF739FD1CBD3C170008F4
:1011900000B50020FFF75EFF03212020FFF708FBCA
:1011A00032212520FFF704FB48212620FFF700FB12
:1011B00077213F20FFF7FCFA00BD1CB528216846C7
:1011C000017032214170802181709021C170002115
:1011D0000171052269463E20FFF7CAFB0220FFF796
:1011E0000DFD8020FFF736FF402168460170012188
:1011F000417030218170E221C170042269462120B2
:10120000FFF7B6FB292168460170892141705521FD
:1012100081704021C170502101710522694623204F
:10122000FFF7A6FB292168460170012269462C20A0
:10123000FFF79EFB552168460170C22141700921CC
:101240008170AC21C170042269463120FFF790FB08
:101250000021684601701421417008218170292104
:10126000C170042269463320FFF782FB02216846E1
:101270000170C1214170CB2181701C21C1700422F9
:1012800069463D20FFF774FB972168460170642191
:101290004170002181700121C170042269463E2005
:1012A000FFF766FB2A216846017004214170002186
:1012B00081707D21C170042269463F20FFF758FBF1
:1012C0000020FFF7C7FE1CBDA83FD30040A1C8DA2D
:1012D00012817FA4A6D5808D14AF0000000000000D
:1012E000002F00000007000700147F147F14242A39
:1012F0007F2A12C4C81026463649552250000503DD
:101300000000001C2241000041221C0014083E087D
:101310001408083E0808000050300010101010108B
:10132000006060000020100804023E5149453E0064
:10133000427F400042615149462141454B311814DA
:10134000127F1027454545393C4A4949300171090A
:1013500005033649494936064949291E00363600F3
:10136000000056360000081422410014141414140E
:1013700000412214080201510906324959513E7EAA
:101380001111117E7F494949363E414141227F4139
:1013900041221C7F494949417F090909013E4149D0
:1013A000497A7F0808087F00417F41002040413F83
:1013B000017F081422417F404040407F020C027FA1
:1013C0007F0408107F3E4141413E7F090909063EE6
:1013D0004151215E7F091929464649494931010198
:1013E0007F01013F4040403F1F2040201F3F4038C9
:1013F000403F6314081463070870080761514945AA
:1014000043007F414100552A552A550041417F0044
:101410000402010204404040404000010204002058
:10142000545454787F484444383844444420384421
:1014300044487F3854545418087E0901020C525213
:10144000523E7F0804047800447D40002040443D23
:10145000007F1028440000417F40007C041804787D
:101460007C0804047838444444387C141414080874
:101470001414187C7C080404084854545420043F75
:101480004440203C4040207C1C2040201C3C4030FC
:10149000403C44281028440C5050503C4464544C68
:1014A00044000836410000007F000000413608007B
:1014B0000402040804000000000000000000000016
:1014C000000000000000000000000000000000001C
:1014D000000000000000000000000000000000000C
:1014E00000000000000000000000000000000000FC
:1014F00000000000000000000000000000000000EC
:1015000000000000000000000000000000000000DB
:1015100000000000000000000000000000000000CB
:1015200000000000000000000000000000000000BB
:1015300000000000000000000000000000000000AB
:10154000000000000000000000000000000000009B
:10155000000000000000000000000000000000008B
:10156000000000000000000000000000000000007B
:101570000000000000000000000036000000000035
:101580000000000000000000000000003E49494942
:101590002200000000000000000000000000000029
:1015A000000000000044457C4544000000000000AD
:1015B0000000000000417F410000447D4000000029
:1015C000000000000000000000000000000000001B
:1015D0000000000000000000000000003854442813
:1015E00000000000000000000000000000000000FB
:1015F00000000000004A487A40407E1111117E7FB1
:10160000494949317F494949367F01010103603E1B
:1016100021217F7F4949494163147F14632249494D
:1016200049367F1008047F7F1009047F7F08142249
:10163000417C0201017F7F020C027F7F0808087F46
:101640003E4141413E7F0101017F7F090909063E7C
:101650004141412201017F0101074848483F1C22C6
:101660007F221C63140814633F20203F6007080892
:10167000087F7F407F407F3F203F207F017F484899
:10168000307F4848307F7F48484830224949493EAA
:101690007F083E413E462919097F205454547878EA
:1016A000545454207C545454287C0404040060385E
:1016B00024386038545454186C107C106C284454EE
:1016C00054283C4040207C3C4042207C7C10102828
:1016D00044601008047C7C0810087C7C1010107C8E
:1016E00038444444387C0404047C7C1414140838C2
:1016F0004444442004047C04040C5050503C1824FE
:101700007C241844281028443C20203C600C1010F5
:10171000107C7C407C407C3C203C207C047C484805
:10172000307C4830007C7C48484830284454543849
:101730007C10384438582424247C0000400010E6F3
:1017400000000000641700080000002018000000DE
:10175000040100087C170008180000207006000033
:101760002001000800000000000000000000000050
:0C177000546573742020344310100000F6
:040000050800016589
:00000001FF
